:020000040800F2
:100000000004002091010008013500089301000858
:100010009301000893010008930100089301000870
:100020009301000893010008930100089301000860
:100030009301000893010008930100089301000850
:100040009301000893010008930100089301000840
:1000500093010008312300084124000861250008AD
:10006000C12E0008512E00089122000893010008BB
:100070009301000893010008930100089301000810
:100080009301000893010008930100089301000800
:1000900093010008112C0008C12C000893010008EE
:1000A00093010008930100089301000893010008E0
:1000B000012A000893010008930100089301000839
:1000C00072B6244880F30888234880F30988022008
:1000D00080F31488BFF36F8F02F09AF803F0B8F83A
:1000E0001E481F491B4A914202DA08600431FAE7B0
:1000F0001C49194A914202DA08600431FAE71A49A8
:100100001A4A1B4B9A4204DA086810600431043220
:10011000F8E700201749184A914202DA08600431D2
:10012000FAE702F08DF802F07BF8144C144DAC4263
:1001300003DA216888470434F9E703F0E9F9114C40
:10014000114DAC4203DA216888470434F9E70F49BE
:1001500008470000000400200008002055555555B0
:100160000000002000040020A44100080008002036
:100170000C0800201008002038110020C0000008E2
:10018000C0000008C0000008C000000831220008BC
:1001900096E700F000F8FEE7F0B544464D465646B7
:1001A0005F46F0B46B46CB60C3689D46F0BCA0468A
:1001B000A946B246BB46F0BD62B6281CA047002047
:1001C00003F056F9FEE703F033F9024A024B1360DD
:1001D000FEE7C04604ED00E000000080F0B5050039
:1001E000830749D0541E002A45D003000326CAB213
:1001F00002E00135013C3ED301332A703342F8D18D
:10020000032C30D9FF220A401502AD182A04AD187C
:100210000F2C34D92700103F3F093E01B4461E0081
:100220001A0010366644156055609560D56010322E
:100230009642F8D101373F01DB190F270C222740E6
:1002400022403C00002A0ED03E1FB608B400A4464F
:100250001A001C1D644420C2A242FCD103240136B2
:10026000B6009B193C40002C05D0C9B21C1919706E
:1002700001339C42FBD1F0BD03001400C0E727000E
:10028000E2E7C046F0B505000F2A31D903273E004A
:100290000D430C0003002E402F4234D11500103DB9
:1002A0002D09AC462F013F1865685D60A5689D600B
:1002B000E568DD60256810341D601D001033BD4207
:1002C000F2D165460F230C2401352D014919134045
:1002D000451914421AD0043B9B0801339B008C59EA
:1002E000AC5104369E42FAD10323AD1989191A4044
:1002F000561E002A06D00023CC5C1A00EC540133B1
:100300009642F9D1F0BD0500561EF4E71A00EFE75A
:10031000002243088B4274D303098B425FD3030A44
:100320008B4244D3030B8B4228D3030C8B420DD357
:10033000FF22090212BA030C8B4202D312120902E5
:1003400065D0030B8B4219D300E0090AC30B8B4223
:1003500001D3CB03C01A5241830B8B4201D38B03D1
:10036000C01A5241430B8B4201D34B03C01A524176
:10037000030B8B4201D30B03C01A5241C30A8B42B9
:1003800001D3CB02C01A5241830A8B4201D38B02A4
:10039000C01A5241430A8B4201D34B02C01A524148
:1003A000030A8B4201D30B02C01A5241CDD2C309BA
:1003B0008B4201D3CB01C01A524183098B4201D336
:1003C0008B01C01A524143098B4201D34B01C01A21
:1003D000524103098B4201D30B01C01A5241C30899
:1003E0008B4201D3CB00C01A524183088B4201D308
:1003F0008B00C01A524143088B4201D34B00C01AF4
:100400005241411A00D20146524110467047FFE75F
:1004100001B5002000F006F802BDC0460029F7D063
:1004200076E770477047C0460000000000000000FB
:1004300001394B4259411420494208401438704751
:1004400000207047000000000000000000000000D5
:100450007422815C143A03000A400020202A00D054
:10046000704755329A5C212A08D81F2AF8D9074AC2
:1004700018679A6607220120DA66F1E7222AEFD18F
:100480009866D86618670120EAE7C046040800208D
:100490007047C0460000000000000000000000009F
:1004A00076237E228021C35C10B5835406328258A5
:1004B0000B43D364436804001B68002B01D07F39D1
:1004C00098470323237010BD0000000000000000C7
:1004D00070B50500012088400C00698901436981DD
:1004E000A11C89006918496801208E69B260002248
:1004F00033607260002B05D0498A013B5818FFF722
:1005000007FF80B28423EB58A4001B191A68054921
:10051000B0810A40C02189015140034A0A431A6050
:1005200070BDC0468FB7FFFF808000000000000054
:100530000F4B10B5C3581C682278042A02D1027AE6
:10054000022A00D010BD597901238B4062891342E1
:10055000F8D1C269036A9A4206D08023200004328F
:100560005B00FFF7B5FFEDE78369002BF5D0E9E706
:100570008C040000000000000000000000000000EB
:10058000436B0F4A10B59A5810680178042902D1BC
:10059000197A022900D010BD517901228A4044897C
:1005A0002242F8D1DA691C6AA24205D080230432C3
:1005B0005B00FFF78DFFEEE79B69002BF6D0EAE7C3
:1005C0008C0400000000000000000000000000009B
:1005D0000F4A70B594460322FF25C0260240D20080
:1005E00095408901914083089B006344B6009C5963
:1005F0001F22AC430C439C51012302409340C02274
:1006000040098000604452008350036070BDC046C2
:1006100000E100E000000000000000000000000019
:10062000C021024A13680B43136070470044004026
:10063000F0B50322C6468B1C9B00C3185C6800B54E
:1006400023681340032B4AD1C023DB00264ACD0088
:10065000944662696544A846002A0BD08827032582
:10066000228AC6590332AA439219C25142461660E1
:1006700020221343A269002A15D0648A621E3E2CF0
:1006800027D80126324301325208920688270325D3
:10069000C6590334AC43A419C45144463243626082
:1006A0008022920113438422825880208C001219E8
:1006B0001468C001044200D0034340201468204263
:1006C00000D00343106819431060116080BCB84625
:1006D000F0BD52099606802212063243D6E75A42EE
:1006E00053415B02B2E7C0460098004000000000A2
:1006F000FEE7C0460000000000000000000000000F
:1007000030B572B6074C65682B1A4842184023680A
:10071000821A9A4204D3954202D3626062B630BD17
:100720000020FBE76C0E002000000000000000002D
:10073000074A10B55468231A484218401368984273
:1007400003D3844201D3506010BD0020FCE7C046B3
:100750006C0E0020000000000000000000000000FF
:1007600002290CD00020032903D0012900D105481B
:100770007047032AFCD80448D2001018F8E7034851
:10078000F6E7C04668400008704000086040000876
:10079000890702D50122014B1A707047000800201A
:1007A00003230B40F0B557469A46CB099C460723D6
:1007B000DE4645464E469B46A023E0B50022554600
:1007C000012183B0DB050FE047461E683E402E4303
:1007D0001E60072A43D81E6A3440009E34431C62C0
:1007E000400835D0AD0001320142F9D05C46674681
:1007F0001440A400A74000970F0097405E68BE43D6
:100800005E609F6801975700B84603274646B74089
:10081000FE43B0463E00B946019FB7439F604F4636
:10082000DE68BE43DE600F26A640F4435646022E25
:10083000CAD1072A19D81E6A3440009E34431C626C
:1008400046461C68400834402C431C600028C9D12F
:1008500003B0F0BCBB46B246A946A046F0BD5E6AF6
:100860003440009E34435C62BAE75E6A3440009EC6
:1008700034435C62E4E7C046000000000000000072
:10088000F0B50024012708260D4D0B0023413B4005
:100890005B42334006332B70030023413B405B42F5
:1008A000334006332B72130023413B405B423340FD
:1008B000063301342B740135082CE6D1F0BDC04657
:1008C00038090020000000000000000000000000C7
:1008D000134BC0009C46604430B50468114D03685A
:1008E00024042B4015042B43240C0360002A15D04C
:1008F000013A900801308000641A081864444B786B
:100900000A781B0213438A780D1912041A43CB7814
:1009100004311B0613432B608842F0D130BDC04622
:1009200000980040FFFF00FC0000000000000000F5
:1009300070B505000C000120A040110000262A8996
:100940000243A01C800028182A81426850698160F7
:1009500003604660128A9A4200D91A00C2602000E1
:10096000FFF7B6FF8423EA58A4001219136804495C
:100970000B4030214B4003490B43136070BDC04610
:10098000BF87FFFF80800000000000000000000023
:10099000436B0F4A10B59A5810680178042902D1A8
:1009A000197A022900D010BD117901228A400489E8
:1009B0002242F8D19A6D5C6D944203D008CAFFF7C9
:1009C000B7FFF0E71B6D002BF8D000230022F6E7FD
:1009D0008C04000000000000000000000000000087
:1009E000642370B5C25C0400002A01D00022C25406
:1009F000C44BC9009C4661444B681B041B0C6344F8
:100A00001A6862675B68A36763689B68002B23D0E2
:100A10002000984700281FD0E16E7A23E25C230073
:100A20007A335B781B0213438B4200D39CE0742221
:100A3000E366A25C52B2002A5EDB002B00D187E0A5
:100A400064231522E25472B600212000E36EA26EE8
:100A5000FFF73EFD62B64EE07423E25C143B1D00DE
:100A6000154013422BD175237F21E35C11401B02FB
:100A70000B43A5498B4200D124E14BD8802149008A
:100A80008B4200D1A6E000D972E0012B00D104E135
:100A9000022B00D1AAE022007C32002B0FD10223CE
:100AA000E36600230221A2662367B6E790221201C3
:100AB000934200D1B2E0954A934200D1EDE0842305
:100AC000E258136892490B4010214B4091490B4367
:100AD00013601068904B184080235B01434019431A
:100AE000636811601B68002B02D006212000984724
:100AF00064230622E25470BD002B1DD0642309221A
:100B0000E25472B600212000E36EA26EFFF710FFE0
:100B100062B6F0E7802109018B4200D1CAE0C5D856
:100B2000A021C9008B4237D17C4B00212367A166ED
:100B3000E16652B2002A0BDA64231422E25472B640
:100B40000023002200212000FFF7C2FC62B6D2E79A
:100B500064230B22E25472B60023002200212000FD
:100B6000FFF7E6FE62B6C6E77423E25C0B0061E7BE
:100B7000812149008B426BD0FF31FF318B429ED1E6
:100B80007623E35C012B00D099E77C210220635A95
:100B9000034363520023C8E7614A94466344012B30
:100BA00000D98CE77823E25C230078335B787721E7
:100BB0001B02134376226068A25C4668615C2000D9
:100BC000B047002800D17AE743680168A366E16670
:100BD000256722E77623E35C012B00D06FE77C21B9
:100BE0000220635A8343635200239EE77823E15C2B
:100BF0000C33E258753B0B4049B29B0000294EDB99
:100C00009958C02308009B011840194200D158E7A9
:100C100080235B0198424BD0424A40E72378042B63
:100C200000D185E07623E35C002B0AD07F22A35419
:100C30000423237063681B68002B02D0022120006C
:100C400098470023A366E36623677433E25C70E78A
:100C50007623E35C002B00D031E70F2108007833C6
:100C6000E35C1840194295D075315BB26158800041
:100C7000002B00DA8FE00B18C020196880010140BA
:100C8000814287D019682448014080208001484073
:100C9000204901431960002347E7234AFFE630213A
:100CA00008009B581840194200D10AE71028B3D118
:100CB0001E4AF4E623007F33A36601230121E36685
:100CC0002567AAE67623E35C002B00D0F7E60F2128
:100CD00008007833E35C1840194200D15AE77531B7
:100CE000615880005BB20918002B4ADB0B680A4888
:100CF0000340802040015840064B03430B60002313
:100D000013E7C0460098004002030000020C0000F8
:100D1000BF87FFFF808000008FB7FFFFA10400089E
:100D200000FAFFFF18410008204100081C4100089C
:100D300072B6214AA36800201340A3604022882392
:100D400025616561A561E56125626562A562E25084
:100D5000043BE5583F3A9300EB18196801321960DB
:100D60001860082AF7D162B67F23E0547C3B2370D9
:100D700063681B68002B00D154E7032120009847CB
:100D800050E70B680D480340102043400C480343D4
:100D90000B600023C9E60B18302118680140302988
:100DA00000D1F7E619680548014020204140044879
:100DB000014319600023B8E601000100BF87FFFF6F
:100DC0008080000000000000000000000000000023
:100DD000642310B5C35C0400152B18D8274A9B0068
:100DE000D3589F467A23E25C23007A335B78C06E47
:100DF0001B021343984230D364231422E25472B688
:100E00000023002200212000FFF762FB62B610BD24
:100E10008423C2581A4913680B4010214B401949CA
:100E20000B4313601068184B184080235B0143404C
:100E30001943636811601B68002B02D00621200053
:100E4000984764230622E254E1E7036F002B00D0A9
:100E5000984764230022E254D9E7E368198AFFF730
:100E6000DDFA0029C8D172B6002300222000FFF766
:100E70005FFD62B664230A22E254C8E7B03B000873
:100E8000BF87FFFF808000008FB7FFFF00000000DA
:100E9000642310B5C35C0400152B1FD81C4A9B00AB
:100EA000D3589F468423C2581A4913680B40102117
:100EB0004B4019490B4313601068184B18408023AE
:100EC0005B0143401943636811601B68002B02D02B
:100ED00006212000984764230622E25410BD6423B3
:100EE0000B22C25472B6002300220021FFF720FD1E
:100EF00062B6F3E7C3689B695B68002BEED1036FB2
:100F0000002B00D0984764230022E254E6E7C04655
:100F1000083C0008BF87FFFF808000008FB7FFFFFD
:100F200070B572B61C4B1D4A9A5810680178042996
:100F300002D1197A022901D062B670BD117901225D
:100F40008A4004892242F7D15C6D9A6D9442F3D1B4
:100F50001C6D002CF0D0DC6E002CEDD0043CA51AEA
:100F60009442E9D015601C6D1D6E013C1C65DC6D62
:100F700055195D65A54201D39D6E5D650024DC6653
:100F8000AA4203D008CAFFF7D3FCD5E71B6D002B9C
:100F9000F8D000230022F6E7DC0900208C040000D2
:100FA00072B62423CB5C0C2B0BD8114A9B00D35870
:100FB0009F468A6A9368013393604A680B6813609E
:100FC0005A60012300225B428B622533CA548B692D
:100FD00088681B689A688242FBD25A680B604A6034
:100FE0001160596062B6704700228B6A1A60E8E7A8
:100FF000603C00080000000000000000000000004D
:101000000368F0B598423CD0242600270CE05A68CB
:101010009C68956B2C439463955D0A2D1DD00B2D18
:1010200030D01B6898422CD0DA680A43DA60002975
:10103000EDD01A690A42EAD11B68984221D0DA68D9
:101040000A43DA601A690A42F6D05A689C68956BBE
:101050002C439463955D0A2DE1D1956A2542E0D039
:101060009762975595689469AC462468A56865456C
:10107000FBD265681B68146055602A606260984204
:10108000D2D1F0BD956A2C40A542CAD1E8E7C0464E
:10109000F8B50B00CE46474609339B00C3185C6881
:1010A00005000E0080B5002C17D072B60821201D57
:1010B000FFF7A6FFB31C9B00EB18586843691B6839
:1010C0009946002B0DD1A26D636D9A4240D031003C
:1010D000280008CAFFF72CFC62B6C0BCB946B0466F
:1010E000F8BD236DA26D01332365236ED218E36D25
:1010F000A2659A4201D3A26EA2652700636C4437B1
:101100009F4212D0196861644F60002724219F62BA
:101110005F5499689F6988463F68B9684145FBD22A
:1011200079681F6059600B607B60636D9342CED11C
:10113000236D002BCBD04A46038A013B1A42CBD108
:101140002A000023310028007432FFF7F1FBC3E7C7
:10115000236D002BBBD0BFE70000000000000000A3
:101160001131890070B50C58002C10D072B61D4B8F
:10117000E3581A685B7902339B00D3185B689B695C
:101180005D68002D04D12000FFF7D2F962B670BD72
:101190000421201DFFF734FFE3691D60A2690132BD
:1011A000A261A26A9B18626AE361934201D3236B36
:1011B000E3612200E3680C329A42E4D01968E160EE
:1011C0004A60002224219A625A549A6998681268E7
:1011D00091688142FBD251681A6059600B6053607C
:1011E000D1E7C0468C0400000000000000000000B1
:1011F0001A4B30B51C001034998344601C6902817D
:10120000046060601861101C022A00D2022082B2C1
:101210008C181348A4B24463002404610234C460EF
:10122000446AA4B2651AADB2AA4200D930BD022206
:10123000013292B2511889B24163456AADB2291B9D
:1012400089B2914206D2022AF0D901215A6B0A438F
:101250005A63EBE721002C00EAE7C046B0100020FB
:1012600000480140000000000000000000000000F5
:10127000F0B54F464646D646704DC0B5EB68814640
:1012800098466F4B2F6886B0994268D06E464346A9
:1012900033616C4B2869F3600023B3826A4B5B6A4D
:1012A0009BB29C462B001033984200D19EE06246D0
:1012B000AB8BD31A9BB2CC18A4B2A34200D90C00BA
:1012C0000389A34248D90A1C022900D2022263469C
:1012D00092B25D499B189BB24B6363468A46496A4A
:1012E00089B2CB1A9BB29A4200D887E04368348116
:1012F000736000901E60038946601B1B03810123FD
:101300005B422B83242342464946D1543A684146E6
:1013100055602A6001223800FA54EF60FEF73CFF66
:10132000009B002B0CD02A69B24226D07268136051
:101330005A6031891A8952181A8101235B422B8322
:101340004346986A06B0E0BCBA46B146A846F0BD2E
:101350000068E41A0389A4B2A342F9D3C6E72423A0
:101360004246D0543A68414655602A60012238000E
:10137000FA54EF60FEF710FFE2E72A000021103276
:101380002B6131605A60934251D01A8931895218C9
:1013900092B21A812C4BA98B5B6A9BB2581A80B20D
:1013A0008242CDD9D21A89180A1C89B2022923D3C4
:1013B00092B22548991889B24163416A89B2CB1A21
:1013C0009BB29342BCD3022301339BB2CA1892B2A0
:1013D0004263426A92B2511A89B299422CD2022BCC
:1013E000AED901226B6B13436B63A9E70A0030008F
:1013F0006146FFF7FDFE85E70222D9E702239C46FE
:10140000634601339BB25A189C46534692B25A63C4
:101410005A6A92B2511A89B261450BD26346022BC5
:1014200000D863E701226B6B13436B635EE7064BE7
:10143000D96085E71100E3E71100C5E7B01000208F
:10144000FFFF0000A10F000800480140000000005D
:10145000F8B504000E00150072B6836A002B1ED08A
:101460001E70A36AE26A0133A362934202D262B69B
:101470000020F8BDE2692369043A1A60E268013A83
:10148000E260E2699B18A269236193422ED2002395
:10149000A362236B002BEAD020009847E7E7C368DC
:1014A000002B1CD1237A002B23D1134FFB68002D76
:1014B00007D10120404262B6DBE7237A002B18D126
:1014C000FB6862681C605A60290013600420636036
:1014D000FFF7CEFE0028EEDBE368002BEDD022699B
:1014E000E169131D5218A362E262B9E7636A2361DE
:1014F000CDE702204042DEE7B010002000000000EF
:1015000010B5024A4430FFF7A3FF10BDFFFF0000F3
:1015100010B54430FFF79CFF10BDC046000000002E
:10152000F8B504000E0072B6836A002B1AD0C26AA6
:101530001D780133A362934202D262B62800F8BD3F
:10154000E368E269013BE36063699B18A269636138
:1015500093422DD20023A362236B002BEDD02000F9
:101560009847EAE7C368002B1BD1237A002B22D1CE
:10157000124FFB68002E06D101256D42DDE7237A6C
:10158000002B18D1FB6862681C605A603100136040
:1015900004206360FFF76CFE051ECEDBE368002BC2
:1015A000EDD06269131D1268A3629A18E262BFE768
:1015B000636A6361CEE702256D42BEE7B01000208A
:1015C00010B502490C30FFF7ABFF10BDFFFF000064
:1015D00010B50C30FFF7A4FF10BDC046000000009E
:1015E000F8B5DE464E46454657460400E0B59346FC
:1015F0000E00984672B6384B0025994600239A464D
:101600000FE040223000FEF73DFEA36AE26A40335D
:1016100040364035A3629A421BD962B65D4553D22B
:1016200072B6A16A002928D0E36A5A465B1A571B92
:101630009F4200D91F00402FE3D83A003000FEF748
:1016400021FEA36AE26ADB19F619ED19A3629A4238
:10165000E3D8E368E269013BE36063699B18A26930
:101660006361934201D3636A63615346A362236B50
:10167000002BD2D020009847CFE7E368002B1BD186
:10168000237A002B1FD14B46D8684346002B05D147
:1016900019E0237A002B16D14B46D86863680460A2
:1016A00043604146186060600420FFF7E1FD0028B8
:1016B00009DBE368002BECD06369191D1B68A1628C
:1016C000CB18E362B1E762B62800F0BCBB46B24675
:1016D000A946A046F8BDC046B0100020000000009A
:1016E00010B5024B0C30FFF77BFF10BDFFFF000071
:1016F00010B50C30FFF774FF10BDC04600000000AD
:10170000F8B5DE464E46454657460400E0B59346DA
:101710000E00984672B6394B0025994600239A462A
:101720000FE040223100FEF7ADFDA36AE26A4033CC
:1017300040364035A3629A421BD962B65D4556D207
:1017400072B6A06A00282BD0E36A5A461B1A571BB0
:101750009F4200D91F00402FE3D83A003100FEF726
:1017600091FDA36AE26ADB19F619ED19A3629A42A8
:10177000E3D8E2692369043A1A60E268013AE26058
:10178000E2699B18A2692361934201D3636A2361D2
:101790005346A362236B002BCFD020009847CCE7A1
:1017A000E368002B1BD1237A002B1FD14B46D8684E
:1017B0004346002B05D119E0237A002B16D14B4666
:1017C000D868636804604360414618606060042024
:1017D000FFF74EFD002809DBE368002BECD02369FE
:1017E000E269181D9B18A062E362AEE762B62800AA
:1017F000F0BCBB46B246A946A046F8BDB0100020DA
:1018000010B5024B4430FFF77BFF10BDFFFF000017
:1018100010B54430FFF774FF10BDC0460000000053
:1018200070B504000D0072B68368002B13D1164EFC
:10183000F368002901D122E0F36862681C605A60F5
:101840002900136004206360FFF712FD002818DBF5
:10185000A368002BF0D0A368A269013BA360531CCE
:10186000A36115782269934201D3E368A361E36918
:10187000002B01D02000984762B6280070BD0120DF
:10188000404262B6FAE7C046B010002000000000F7
:1018900010B502490C30FFF7C3FF10BDFFFF000079
:1018A00010B50C30FFF7BCFF10BDC04600000000B3
:1018B000F0B54E464546DE465746E0B583B0009348
:1018C000C369040088469946019272B6171E29D052
:1018D0002B4B9B46A3683D00BB4200D2A568A16983
:1018E0002669761AAE4244D825D232004046FEF729
:1018F000C9FC3000AB1B9A461A00E1684044FEF771
:10190000C1FCE3685344A361A3685B1BA3604B461F
:10191000002B01D02000C84762B67F1BA84472B6D6
:10192000002FD7D1019862B603B0F0BCBB46B246D7
:10193000A946A046F0BD2A004046FEF7A3FCE36896
:10194000A361A3685B1BA360002DE0D15B46009AF6
:10195000DB68002A0AD062681C605A6004201360A9
:1019600000996360FFF784FC0028B3D0019BD81B6B
:10197000D9E72A004046FEF785FCA3695B19DFE73B
:10198000B010002000000000000000000000000077
:1019900010B5024B0C30FFF78BFF10BDFFFF0000AE
:1019A00010B50C30FFF784FF10BDC04600000000EA
:1019B000F8B504000F00150072B68368002B13D130
:1019C000164EF368002A01D123E0F36860681C60BA
:1019D00058602900036004206360FFF749FC002879
:1019E00019DBA368002BF0D0A368013BA3606369F7
:1019F0005A1C62611F70626923699A4201D3E368CD
:101A00006361E369002B01D02000984762B6002093
:101A1000F8BD0120404262B6FAE7C046B01000208F
:101A200010B5024A3030FFF7C3FF10BDFFFF0000C2
:101A300010B53030FFF7BCFF10BDC04600000000FD
:101A4000F0B54E464546DE465746E0B583B00093B6
:101A5000C369040088469946019272B6171E29D0C0
:101A60002B4B9B46A3683D00BB4200D2A568606932
:101A70002669361AAE4244D825D232004146FEF7D6
:101A800001FC3100AB1B9A461A00E0684144FEF7A6
:101A9000F9FBE36853446361A3685B1BA3604B4697
:101AA000002B01D02000C84762B67F1BA84472B645
:101AB000002FD7D1019862B603B0F0BCBB46B24646
:101AC000A946A046F0BD2A004146FEF7DBFBE368CD
:101AD0006361A3685B1BA360002DE0D15B46009AA5
:101AE000DB68002A0AD062681C605A600420136018
:101AF00000996360FFF7BCFB0028B3D0019BD81BA3
:101B0000D9E72A004146FEF7BDFB63695B19DFE7B1
:101B1000B0100020000000000000000000000000E5
:101B200010B5024B3030FFF78BFF10BDFFFF0000F8
:101B300010B53030FFF784FF10BDC0460000000034
:101B400070B5254C2378002B08D172B60A210820E5
:101B5000FFF78EFB62B62378002BF6D000230F2010
:101B60001E4D23702A680126536819688143196045
:101B7000117C10680E228A408D2149004260196054
:101B80001749D960282159601968314319602178B3
:101B900000290ED172B60A210820FFF769FB62B650
:101BA0002378002BF6D02A68117C536810680E2227
:101BB0008A40002121700F241968A14319604260F6
:101BC000CD2252001A60074A0121DA6019225A60B8
:101BD0001A680A431A6070BD00080020D809002066
:101BE000243F000838090020000000000000000029
:101BF000F8B5CE464746040080B5042900D9DAE09E
:101C00004B1E012B00D97FE0022979D172B6714BAE
:101C10001022036100217048FEF7E0FA1022002133
:101C20006E48FEF7DBFA20000121FEF701FD6C4B48
:101C30001022636100216B48FEF7D0FA20000221D8
:101C4000FEF7F6FC684C00232000226BE1680C30A4
:101C5000A361E26122626363A36381421BD0023B02
:101C60009846263381469C4600274A460B00096861
:101C7000E1604A6042469A6262469F549A699E6851
:101C800012689568B542FBD255681A605D602B609A
:101C900053608142E9D125000023626E616C2265A8
:101CA000A26E443523756265A265E3662367A94287
:101CB0001BD0023B98462633A9469C4600274A463D
:101CC0000B00096861644A6042469A6262469F540A
:101CD0009A699E6812689068B042FBD250681A6098
:101CE000586003605360A942E9D14C2300220121CE
:101CF000201DE254FFF784F92000FEF719FC62B6BC
:101D0000C0BCB946B046F8BD72B6374C237D002B37
:101D100003D04C23E35C002B5AD1344D0221280020
:101D2000FFF76EF90122A9682A740835A9421DD06F
:101D300002235B42984626332800A9469C4600278A
:101D40004A460B000968E1604A6042469A62624670
:101D50009F549A699E6812689568B542FBD255688F
:101D60001A605D602B6053608142E9D125004C23ED
:101D70000122616C4435E254A94229D04E3B984679
:101D80002633A9469C4600274A460B000968616431
:101D90004A6042469A6262469F549A699E681268F7
:101DA0009068B042FBD250681A605860036053607C
:101DB000A942E9D10CE00529A2D172B60B4C012150
:101DC0002000FFF71DF900234C222374043CA35488
:101DD00062B695E73C400008100900200009002089
:101DE00018400008F0080020DC090020E00900206D
:101DF0000EB4F0B557464E464546DE46E0B588B0CF
:101E000012AB049301930023B54C9A464821B54D7B
:101E1000661E0BE02B682800DB68984701239C4670
:101E20002600E2443178741C00296ED02529F1D1B6
:101E30000022737800922D2B02D12C3BB41C00930E
:101E4000237800212B2B02D1637801310134202229
:101E50009146302B02D19946013423782A2B1ED18A
:101E60000020019A6378844680CAA61C2E2B31D0AC
:101E700020241800A0434C283AD01C00413CE0B27A
:101E8000029044204042804698444046C0B23428E4
:101E900046D880008046444693480059874601341E
:101EA000002B32D00027380008E001348700631E81
:101EB0003F181B787F00D019002B26D01A00303A2B
:101EC000D2B2092AF1D90700002026008446019ADF
:101ED0002E2BCDD13378002B17D02A2B5AD108CAFC
:101EE00020249C46737802361800A0434C28C4D1A5
:101EF0003378002B09D01C00443CE4B20136342C6A
:101F00000ED87A48A4000459A746504608B0F0BC41
:101F1000BB46B246A946A046F0BC08BC03B0184771
:101F2000019205AC23707B1E984642467B42DB172C
:101F30001A40009B9046002B00D0C0E0012F00DC2F
:101F4000C6E000239B462178FD230A002B3A1A4263
:101F500000D1B7E04346634F009343465B423A00EB
:101F60001F002B00A0464D46140099462368290007
:101F70002000DB6801379847002FF7D14B46A94670
:101F80001D00009B44465344B8469A465B46002BCE
:101F900052DA60E0013608E083001B185B0001366E
:101FA000E018731E1B78002BAFD01C00303CE4B24D
:101FB000092CF1D984465BE70A239846131D019347
:101FC000106804AA0F23944663449B461C002B0010
:101FD00045469846029729000700FEF71FFA0B00B6
:101FE0003033392B00DD0733013C2370BD42F2D979
:101FF00023005A4605ACD21A45462100944658465D
:10200000029F1A7801330A7001319842F9D1634670
:10201000E3181B1BFF1AF943013B9B46C917009BA2
:1020200039408846002BB1D1002F8CDC0023984624
:102030005B46002B00DAF5E65B46E7182B68217853
:10204000DB6828009847230001349F42F6D15346AD
:1020500001335B449A464346002B00D1E2E64446F6
:102060004F462B6839002800DB68013C9847002C5C
:10207000F7D1C244D6E6130010CB0193002C00D157
:1020800098E062462378002A25D0002B00D1A2E0F8
:102090006046013800D59EE001302300201801E0A1
:1020A000834203D05A780133002AF9D12022914685
:1020B000AFE708CA01922022DBB2914631E7002344
:1020C0009B46B9E74B46302B50D02023994641E739
:1020D0009B469846B0E7002B00D17CE00448DBE744
:1020E000953C0008DC090020B83C00088C3D000845
:1020F000FE7F00001300029C01CB0193192C46D9EE
:1021000005AC002848DB2300002903D02B232370D3
:1021100004AB05330B2290460393984423004446B6
:102120009B4602970A210700FEF778F9013C3031FF
:10213000217038000A21FEF7EBF8092FF2DC5A462D
:10214000A346140059464246521AA44600211400E0
:102150005A46029F039B505C58540131A142FAD168
:1021600064465B1855E71023984627E72F3B9C46AB
:10217000214FE2443B683800DB68984701235B420B
:102180009C4643460134E3440093E6E6131D106881
:10219000019305AC0028B6DA2D23237004AB40422E
:1021A0000533B7E7131D01931023984608E708236A
:1021B000984603E76346114C002B00D068E71048AF
:1021C0006AE7131D019308239846F9E6131D01934E
:1021D0000A239846F4E6FB43DB173B40984620234E
:1021E0009946009B002B00D035E7002F00DC19E654
:1021F00001235B429B46ADE6DC090020A43C0008BD
:10220000FE7F000000000000000000000000000051
:102210007047C04600000000000000000000000001
:102220007047C046000000000000000000000000F1
:10223000FEE7C046000000000000000000000000B3
:1022400070B5114C250080356068A2682168904205
:102250000AD2030040C940C39342FBD3013A131A88
:102260009B0801339B00C018E368834207D9013BF8
:102270001A1A9208013200219200FDF7AFFF1034C4
:10228000AC42E1D170BDC04624410008000000000E
:102290000E211E4A10B5136874461B0919401C4BC9
:1022A0001B680B4207D00B0153601A4A1369002BBD
:1022B00001D0506998470E21144A13681B0A19402F
:1022C000154B1B680B4207D00B025360114A9369F0
:1022D000002B01D0D06998470F3400D110BD72B6E1
:1022E000EFF30983203B83F3098880225204DA61EB
:1022F0000A4A1168D26889689268914202D9084AEC
:102300009A61EBE7074A9A61E8E7C046000002409D
:102310001C0002408010002030000240B01000205D
:10232000C7010008CA01000800000000000000000A
:102330000322F0B557464E46454610003A4BE0B4EE
:10234000DE68196930400A400E43D860F2461A61CF
:10235000F30721D5354CA368002B01D0E0689847DE
:1023600072B62168A14216D02423002598460B009E
:10237000424609684C609D629D549A699F6821603D
:1023800012689068B842FBD250681A6058600360C7
:102390005360A142EBD162B6B60726D5234CA369A0
:1023A000002B01D0E069984772B610239C46216942
:1023B000A444614518D01433E1460027984662468C
:1023C0000B00096821614A6042469F629F549A69E6
:1023D0009E6812689068B042FBD250681A605860DC
:1023E000036053604945EAD162B653460F3304D1C6
:1023F000E0BCBA46B146A846F0BD72B6EFF3098319
:10240000203B83F3098880225204DA61084A11686C
:10241000D26889689268914202D9064A9A61E7E7D0
:10242000054A9A61E4E7C04600180240800F002088
:10243000B0100020C7010008CA0100080000000019
:102440000C22F8B55F4656464D46444610003D4BBB
:10245000F0B4DE68196930400A400E43D860F34694
:102460001A61730726D5384CA36A002B01D0E06AA5
:10247000984772B620239846216AA044414518D057
:102480000433C2460025994642460B000968216282
:102490004A604A469D629D549A699F681268906896
:1024A000B842FBD250681A605860036053605145CF
:1024B000EAD162B6360726D5234CA36B002B01D098
:1024C000E06B984772B630239C46216BA44461456B
:1024D00018D00C3BE1460027984662460B0009687D
:1024E00021634A6042469F629F549A699E681268BF
:1024F0009068B042FBD250681A6058600360536025
:102500004945EAD162B65B460F3305D1F0BCBB4604
:10251000B246A946A046F8BD72B6EFF30983203B48
:1025200083F3098880225204DA61084A1168D2686C
:1025300089689268914202D9054A9A61E6E7054A9C
:102540009A61E3E700180240800F0020B0100020DD
:10255000C7010008CA0100080000000000000000D8
:10256000F8B55F4656464D464446C84BF0B4DE6863
:10257000C74A3000196910400E430A40D860F3463C
:102580001A61F30626D5C34CA36C002B01D0E06C76
:10259000984772B640239846216CA044414518D014
:1025A0000023C2469C46242542460B00096821644C
:1025B0004A6062469A625A559A699F6812689068A2
:1025C000B842FBD250681A605860036053605145AE
:1025D000EAD162B6B30626D5AE4CA36D002B01D06E
:1025E000E06D984772B650239846216DA04441454E
:1025F00018D00023C2469C46242542460B00096899
:1026000021654A6062469A625A559A699F681268C3
:102610009068B842FBD250681A60586003605360FB
:102620005145EAD162B6730626D59A4CA36E002BAB
:1026300001D0E06E984772B660239846216EA044A0
:10264000414518D00023C2469C46242542460B0033
:10265000096821664A6062469A625A559A699F687B
:1026600012689068B842FBD250681A6058600360E4
:1026700053605145EAD162B6330626D5854CA36F27
:10268000002B01D0E06F984772B670239846216FF7
:10269000A044414518D04C3BC246002599464246CD
:1026A0000B00096821674A604A469D629D549A69F9
:1026B0009F6812689068B842FBD250681A605860F0
:1026C000036053605145EAD162B6F3052AD58823E9
:1026D000704CE358002B02D08C22A058984772B659
:1026E00080239C46E158A44461451AD099465C3B3E
:1026F000E246002798464A460B000968A150624608
:102700004A6042469F629F549A699D681268906829
:10271000A842FBD250681A6058600360536051456C
:10272000E9D162B6B3052AD598235A4CE358002B59
:1027300002D09C22A058984772B690239C46E1583C
:10274000A44461451AD099466C3BE246002798465E
:102750004A460B000968A15062464A6042469F62A1
:102760009F549A699D6812689068A842FBD250688D
:102770001A605860036053605145E9D162B6730531
:102780002AD5A823434CE358002B02D0AC22A058F2
:10279000984772B6A0239C46E158A44461451AD0DC
:1027A00099467C3BE246002798464A460B0009685A
:1027B000A15062464A6042469F629F549A699D6852
:1027C00012689068A842FBD250681A605860036093
:1027D00053605145E9D162B633052AD5B8232D4C53
:1027E000E358002B02D0BC22A058984772B6B02301
:1027F0009C46E158A44461451AD099468C3BE24678
:10280000002798464A460B000968A15062464A6074
:1028100042469F629F549A699D6812689068A842D8
:10282000FBD250681A605860036053605145E9D18B
:1028300062B6F30431D5C823164CE358002B02D0FE
:10284000CC22A058984772B6C0239C46E158A444B5
:10285000614521D099469C3BE246002798464A466E
:102860000B000968A15062464A6042469F629F542D
:102870009A699D6812689068A842FBD250681A60F5
:102880005860036053605145E9D105E000180240EB
:10289000F0FF0000800F002062B6B3042AD5D823D1
:1028A000514CE358002B02D0DC22A058984772B656
:1028B000D0239C46E158A44461451AD09946AC3BCC
:1028C000E246002798464A460B000968A150624636
:1028D0004A6042469F629F549A699D681268906858
:1028E000A842FBD250681A6058600360536051459B
:1028F000E9D162B673042AD5E8233B4CE358002B98
:1029000002D0EC22A058984772B6E0239C46E158CA
:10291000A44461451AD09946BC3BE246002798463C
:102920004A460B000968A15062464A6042469F62CF
:102930009F549A699D6812689068A842FBD25068BB
:102940001A605860036053605145E9D162B636049D
:102950002AD5F823244CE358002B02D0FC22A0589F
:10296000984772B6F0239C46E158A44461451AD0BA
:102970009946CC3BE246002798464A460B00096838
:10298000A15062464A6042469F629F549A699E687F
:1029900012689068B042FBD250681A6058600360B9
:1029A00053605145E9D162B65B460F3305D1F0BCA7
:1029B000BB46B246A946A046F8BD72B6EFF30983FE
:1029C000203B83F3098880225204DA61074A1168A8
:1029D000D26889689268914202D9054A9A61E6E70D
:1029E000044A9A61E3E7C046800F0020B01000203F
:1029F000C7010008CA010008000000000000000034
:102A0000F8B5444656464D465F46F0B4784CF0461D
:102A1000666DF56935622B0700D0C6E0EB0500D581
:102A2000BBE0231D5C279946AB062BD445E0236A07
:102A3000626A934235D06269013262615A1C226235
:102A40001D70226AE3699A4201D3A36923622200BE
:102A5000E3680C32934211D01968E1604A600022A9
:102A600024219A625A549A6998681268916881423E
:102A7000FBD251681A6059600B60536062B6F56909
:102A8000AB061AD572B6756AE35D1D406369002B0B
:102A9000CDD104214846FEF7B3FA236A626A934215
:102AA000C9D16269002AC6D0802148460901FEF7D3
:102AB000A7FA62B6F569AB06E4D4802337683B42D7
:102AC0003ED02B423CD021005C3B99465C339C4677
:102AD000303126E0A26B0132A2635A1CA2641D7839
:102AE000236C9A4201D3E36BA364236B8B4212D015
:102AF0001A680020226351604A4698629854986888
:102B00009A698346126890685845FBD250681A60EB
:102B1000586003605360B56262B66346F5692B4244
:102B20000ED072B6A36C626C9A42D3D1A26B002A0B
:102B3000D0D00821201DFEF763FA80239F4362B6A0
:102B4000402399463B4201D02B4209D1434637608E
:102B50000F330FD1F0BCBB46B246A946A046F8BD24
:102B600072B6626CA36C9A4237D062B64346376045
:102B70000F33EFD072B6EFF30983203B83F309885C
:102B800080225204DA611B4A1168D268896892680F
:102B900091421FD9184A9A61DCE772B68021174822
:102BA000C900FEF72DFA62B63BE70123E908194098
:102BB0002B4009025B011943AB0701D540231943A0
:102BC0006B0701D58023194372B60C48FEF718FA3B
:102BD00062B623E70A4A9A61BCE7A36B002BC4D014
:102BE0001021201DFEF70CFA4B469F43BDE7C0465F
:102BF000200F0020B0100020C7010008240F002083
:102C0000CA010008000000000000000000000000F1
:102C100070B5254D7646EA691369D4681C40FF23D8
:102C20002340DB431361A30705D56B681B69002BA9
:102C300001D028009847630705D56B689B69002B76
:102C400001D028009847230705D56B681B6A002B25
:102C500001D028009847E30605D56B689B6A002BD6
:102C600001D028009847E40705D56B689B68002BC6
:102C700001D0280098470F3600D170BD72B6EFF32F
:102C80000983203B83F3098880225204DA61074AD2
:102C90001168D26889689268914202D9044A9A619F
:102CA000EBE7044A9A61E8E7000F0020B01000202B
:102CB000C7010008CA010008000000000000000071
:102CC000F0B557464E464546E0B45C4FF2463A6989
:102CD000FB681340FF221A40D2433A619B071AD483
:102CE00053460F3304D1E0BCBA46B146A846F0BD06
:102CF00072B6EFF30983203B83F3098880225204E4
:102D0000DA614F4A1168D2688968926891426AD93B
:102D10004C4A9A61E7E772B600239846484E102362
:102D20009946B14408E062B620002169E3689847FB
:102D300072B6A28A002A17D17A6A3469B38B92B22A
:102D4000D11A208989B2814234D31B1862689DB29E
:102D50002368B58313605A604346236033694B454B
:102D6000E1D14346FB60DEE7796A306989B24B1BEB
:102D70009BB29A423CD36D1A52193500103592B26B
:102D8000A84253D0991889B28B4203D852E0D21A84
:102D9000006892B203899342F9D34368228120608C
:102DA00063601C60038944609B1A038101235B42BA
:102DB0003383B4E7310010318C4212D01B189B1AB8
:102DC0009BB2B283191C2381022B0FD38BB21B48F9
:102DD000D11889B24163416A89B28A1A92B29A4281
:102DE00010D262B67CE7184A9A617CE70221EDE7CF
:102DF0000225726B2A43726332001032904214D063
:102E00001A00C7E7022301339BB2CA1892B2426389
:102E1000426A92B2511A89B299420DD2022BE0D97C
:102E20000122736B13437363DBE700222000FEF77C
:102E3000DFF9D6E70A00ADE71100E4E700480140FA
:102E4000B0100020C7010008CA01000800000000FF
:102E50000E21144B10B51A6874461140124A1268BC
:102E60000A4206D0114A59609368002B01D0D068FD
:102E700098470F3400D110BD72B6EFF30983203BA1
:102E800083F3098880225204DA61094A1168D26802
:102E900089689268914202D9064A9A61EBE7064A2C
:102EA0009A61E8E70000024008000240801000201C
:102EB000B0100020C7010008CA010008000000008F
:102EC000D14BF0B556469A464D46444684235F465C
:102ED0005246F0B4D6587546746C89B0E3437364B7
:102EE000630500D554E1230500D535E1E30406D59B
:102EF00084235246D3589B6C1B0400D498E1A3054D
:102F000006D553465B68DB68002B01D050469847D6
:102F100080231B029B461C4264D084235246D35814
:102F2000079599465546230023E04346B74A1B6858
:102F3000746913405A4613434246E7681360636856
:102F40002268FB186360D11A9A4230D10122824074
:102F50002B8993432B81B368002B05D0C1B2280085
:102F600098478423EB5899464B465A465B6C13426C
:102F700037D00F2018408400A046C844424612684B
:102F8000871C9446BA00AA18566810221A42CCD060
:102F900043469E4A1B68C1B21340802213434246F7
:102FA0001360634601911B0526D57368D7E7328A03
:102FB0008A4200D90A00A168E260C919A160C0B2C2
:102FC000FDF786FC4346924A1B681340302253406B
:102FD000904A1343424613604B465A465B6C134279
:102FE000C7D1079D0F3500D095E009B0F0BCBB46B6
:102FF000B246A946A046F0BD8749B2698C4693689F
:103000009A46C300634459685B680904090C8C46FE
:1030100081498846C444614698469B019B0D994668
:103020000293FF23039141469B04194239D04B463A
:10303000043B19000493534604330293032399433A
:103040008C46029B03999C445346C91A88460199B1
:1030500002938A46614694464246A0461400059370
:103060000690E058020A18705A70020C000E9A700E
:10307000D87004338B42F4D1534604990193059BD5
:1030800044469A468B08029301339B009846039B63
:10309000624643449C46029B06989B00CB1AC2445E
:1030A0000293029B032B49D0029B022B00D19CE090
:1030B000029B012B00D1A2E0494693684B449360E8
:1030C00053684B44536013685B1A13609389013B48
:1030D0009BB29381728A4A4501D8002B0DD10122FF
:1030E00082406B89BF009343EF196B817B68DB687B
:1030F000002B00D135E7019931E78423EB58474A8B
:1031000099464C4423681340C02292015A40414BD7
:103110001343236028E772B6EFF30983203B83F360
:10312000098880225204DA613D4A1168D2688968B0
:103130009268914260D93B4A9A6156E7634651468C
:103140001B680B70190A8C469846514663464B70B3
:1031500043461B0C8B70AFE7842352460821D2589C
:10316000136C0B43136453461B78052B00D1BDE64B
:10317000514680228B5405230B704B681B68002B33
:1031800002D0042150469847002352469360ADE692
:103190000027022350461370D76797600021202232
:1031A0000C30FDF71BF852466423D75477645768F8
:1031B0001C33F364FB6851465A1E9341BC22120231
:1031C00094465B026344336440228823CA50164B02
:1031D0005046CB600021FDF72BFA3B68002B00D155
:1031E00081E60021504698477DE6634651461B68BC
:1031F0000B701B0A4B705FE70C4A9A61F5E6634659
:1032000051461B680B7057E7740E00200F07FFFF35
:10321000BF87FFFF80800000009800408FB7FFFF4E
:10322000B0100020C701000890400008CA01000843
:103230001378052B00D062E67B33D35C13705368A0
:103240001B68002B00D15AE605215046984756E6E8
:103250002F22614B70B5596A512011435962596A46
:10326000404291435962596A596B5C4C114359630E
:10327000596C5B4D0A435A64A0215A6C0022C9055F
:103280004A6088605748584EC8605848486188204E
:103290004001086256484A62086001215548494287
:1032A00042608160C56044610262426202605248CD
:1032B00042608160C66044610262426202604F48BF
:1032C00042608160C56044614D4D026242620260AD
:1032D0004C4842608160C5604461026242620260A3
:1032E000986A9962986A9A62986AD86AD962D86A22
:1032F000DA62D86A186B01201963196B1A63196BAB
:10330000196C01431964196D81431965196D802188
:10331000D86BC9000143D963D96C3B480140D964DB
:10332000D96C8021D86B49050143D963D96C3748E2
:1033300001408020D964D96C354900028860C020E2
:10334000CA600A624A628A62CA620A634A638A631C
:10335000CA638A64CA64D96D80000140802040003D
:10336000814203D080214902D965DA651A4A294B86
:10337000D16D0B430221D365D36D1942FCD00121DD
:10338000136E0B431366144A0131136E1942FCD0BD
:1033900080231168DB030B43802113600E4A09046C
:1033A00013680B42FCD0D16D1B4B1C481940802385
:1033B0005B000B43D3650023936011680140072035
:1033C0001160536516499365164A116013684B40A6
:1033D0001842FBD170BDC04600100240FFFF000044
:1033E000555555550551156454555501DFFF0000DD
:1033F000A004C02B0004005000080050000C005036
:103400005055555500140050FFFBFFFFFFFFFFEF25
:103410000070004001180000FFFCFFFC1FC7FFFF09
:103420000103040000200240000000000000000032
:103430000D4B10B51868D9680268012453601A60F2
:10344000D8602422002384548B548B698C681B68B9
:103450009A68A242FBD85A680B604A6011605960B2
:10346000FCF79AFE10BDC046B0100020000000001E
:10347000F0B5C64600B572B61D4BD9688862080023
:10348000CA6A2C30824212D126228A5C002A26D0B7
:1034900024220F2088541868046863601C6001248B
:1034A0008454D860FCF778FE80BCB846F0BD242474
:1034B000A0460024A446444666461568CD621655CB
:1034C000946997682468A668BE42FBD26668146057
:1034D0005660326062608542D6D02A00EBE7253222
:1034E0008A5C9207D4D148690A6902605060CFE7CC
:1034F000B0100020000000000000000000000000EC
:10350000EFF30983203383F3098862B67047C0461E
:10351000F8B5F44B45469846DE46002342465746EA
:103520004E46E0B513605360EF4A80211360424677
:103530009360EE4A0025136042461361EC4A052071
:10354000136042469361EB4A136042461362EA4AB3
:10355000136042469362E94A013B5360E84A535084
:103560000131FF3153507E39FF39FDF731F8032126
:103570000620FDF72DF803210720FDF729F801218A
:103580001520FDF725F801211620FDF721F802216D
:103590001C20FDF71DF8DB4B5A1CFF321B605B60E3
:1035A0009D60DD6010339A42F8D1D74ED74BD84991
:1035B000F361D84B01241A0002C25A601A000C327F
:1035C000DA601A61D44A5D619A615A621A621032F5
:1035D000DA611A0030321A635A6310229A63CF4AB2
:1035E0001C72DA639A645A6410321A64CC4A9D627F
:1035F000DA64347034743476DB627560F5601B65B0
:10360000C84FC94A38005A65C84A00219A652C300B
:1036100038223C707D60FCF7E1FD84239A465246D7
:10362000C34BBD60BB50C34B042099461A6C80232A
:103630004946DB021A430A640A6D1A430A654A4680
:10364000126DBD4AD1680B43D360BC4ABC4BBD4927
:103650009362BD4BD362BD4B95615563D560556098
:10366000546114601960BA4923345960B94BBA499E
:10367000A446196019000C315D609D60D960196124
:103680005D61B64B19009C44644610311B605B6061
:10369000196114215C6228249961B149A446196218
:1036A000996319003C31D96319009C446446403148
:1036B000196419009C621C244431D8611C6358634E
:1036C0009D605D615964DD62A64BA749A7481D63F3
:1036D0009963A74C016A21400162190010311961F8
:1036E000596101219D605D63526A4942198390B21C
:1036F000002152460124186259629D50043A5A64CE
:103700009D835B65DA671E3A9C549A4AB8219A6594
:10371000994A18009A621A0068329A661A006C3246
:10372000DA661A671A003C32DA6001229346602298
:103730009C52924A2830525044398C4694446446F4
:103740003031545054468E499D671151882155504F
:103750008C4910341151A021933C545010315350D6
:10376000283154505C4604395550043955501239AB
:103770005454B42484495D671151A82118655050F0
:10378000DD657D480431505011001000A831D96426
:10379000D962C421C43050501100C820C831115022
:1037A00004301150BC215552243953500431535028
:1037B00098321A605A6062B6802099390001FCF78D
:1037C000EFFF802003214001FCF7EAFF6F4C704AB5
:1037D000230004C363605B462372230021000C3383
:1037E000E36023615B467C312162E16121636949C9
:1037F0002375E1632100A12344316164A16458462B
:103800004C219B00E218813BFF3B9C46605462497F
:10381000A3626118E1656146033BFF3BA5616262FB
:10382000E3626563A56324642365A265626521661E
:103830006366A266E5662567584AA467626772B642
:10384000574A5549FC62BC643C636250237262B6BD
:103850005346FA585349936D0B40936572B65249DB
:103860000820FDF705FD62B672B638004F4B2022E6
:1038700000210C307B60FCF7B1FC3B78012B00D0C1
:103880009AE04A46D16B8022484692011143C163B7
:10389000C16C1143C1644946C96CC16A0A43C26222
:1038A000C26A43490A40C2624A46D26A5246BA587C
:1038B0000321914613640820FCF78AFE4B468022C0
:1038C0001D645D64DA64BE234A461B021364402310
:1038D0008822BB50374B00213800FB60FCF7A8FE64
:1038E0006AE0C04680100020080002401C00024030
:1038F00030000240440002405800024000000240F4
:1039000000E100E0800F0020000F00200044014093
:10391000283F0008200F00206409002054090020DF
:1039200021060008740E002000440040006CDC02F8
:10393000005C004000100240005801400048014077
:10394000BF12000038110020FFFF00006C0E0020A5
:103950000060002074090020010700089009002081
:1039600031070008B01000207C3F000800ED00E0A7
:10397000FFFF00FF503F0008FC100020100800204F
:10398000F1060008B9010008AC3C0008DC09002081
:10399000903F0008810500088C0400009109000890
:1039A00010400008FF7FFFFF983A00000040000829
:1039B000FFDFFFFF9040000802233B7062B68233B6
:1039C000FA588023916D1B020B43812101209365DE
:1039D0004900FCF7E5FE72B6654B3278736014233C
:1039E000B3600023F360012A00D1A1E0F269136003
:1039F00053639363D3631364317C04292DD800236C
:103A0000536270695B49FCF783FC1322F369013848
:103A10009862DA620B3A5A60073A317E1A625A614A
:103A200000221A6180229200DA60002902D08022EE
:103A300012025A6485221A600223337062B672B68B
:103A400043461A68012319001140134208D062B698
:103A50000022494B1A60D368FFDE9365D365CEE739
:103A600045461A432A60454AE960916B4448194328
:103A7000A8609163916C194391646D68926C290000
:103A800019401D426FD0012342460F212B43536042
:103A90003C4B1A688A431A603B4A01395160002244
:103AA0001A6062B6344A3949A02611602C212025BB
:103AB000374A384F1160384AF6059A6039002000BD
:103AC000FEF796F9758372B634490820FDF7D0FBEE
:103AD00062B6358372B631490820FDF7C9FB62B67C
:103AE00000220021FF20FCF7CBFEFEF729F872B67A
:103AF0002A490820FDF7BCFB62B60022FF21002006
:103B0000FCF7BEFEFEF71CF872B624490820FDF74C
:103B1000AFFB62B6FF2200210020FCF7B1FEFEF7EA
:103B20000FF872B61D490820FDF7A2FB62B6C5E783
:103B30008022124B9202196C11431964196D1143C2
:103B40001965196D196B0A431A631A6B14490A40F7
:103B50001A631B6B134B144A7361F3699A61DA6140
:103B6000124A5A654DE70920FCF732FD8BE7C04643
:103B7000B83F00080024F400D809002000100240DB
:103B8000910700080800024000000240B44000080D
:103B900000080240943C00083444014088130000AF
:103BA000FFFFFDFF006CDC0268680000686801012F
:103BB000100E00080E0E00080E0E00080E0E000873
:103BC0000E0E00080E0E0008100E00080E0E000863
:103BD0000E0E0008E40D0008F80D00084A0E00085B
:103BE0000E0E00080E0E00080E0E00080E0E000845
:103BF0000E0E00080E0E00080E0E00080E0E000835
:103C0000100E0008100E0008A40E0008DC0E0008BC
:103C1000DC0E0008DC0E0008DC0E0008DC0E0008DC
:103C2000A40E0008DC0E0008DC0E0008A40E00083C
:103C3000A40E0008A40E0008DC0E0008DC0E00082C
:103C4000DC0E0008DC0E0008DC0E0008DC0E0008AC
:103C5000DC0E0008DC0E0008F40E0008DE0E000882
:103C6000E40F0008C20F0008C20F0008E80F0008A8
:103C7000BA0F0008B20F0008C20F0008BA0F000800
:103C8000C20F0008C20F0008C20F0008C20F0008D0
:103C9000BA0F000848656C6C6F20576F726C642116
:103CA0000D0A0000286E756C6C29000069646C6553
:103CB0000000000063300000F4200008201F00080E
:103CC000201F0008201F0008201F0008F420000803
:103CD000201F0008201F0008201F0008201F0008C8
:103CE000201F0008AE21000866210008201F0008E0
:103CF000201F0008201F0008201F0008B81F000810
:103D0000201F0008201F000866210008201F00084F
:103D1000201F0008201F0008201F0008201F000887
:103D2000201F0008201F0008201F0008201F000877
:103D3000201F0008B2200008F4200008201F0008FF
:103D4000201F0008201F0008201F0008F420000882
:103D5000201F0008201F0008201F0008201F000847
:103D6000201F0008AE21000866210008201F00085F
:103D7000201F000876200008201F0008B81F000838
:103D8000201F0008201F0008662100088C21000861
:103D9000201F0008201F0008201F0008201F000807
:103DA0008C210008201F0008201F0008201F000889
:103DB000201F0008201F0008C2210008A4210008BD
:103DC000201F0008201F0008201F0008201F0008D7
:103DD000CC210008201F0008201F0008A421000893
:103DE000201F0008201F0008201F0008201F0008B7
:103DF000201F0008201F0008201F0008201F0008A7
:103E0000201F0008201F0008B22000088C21000895
:103E1000201F0008201F0008201F0008201F000886
:103E20008C210008201F0008201F0008201F000808
:103E3000201F0008201F0008C2210008A42100083C
:103E4000201F0008201F000876200008201F0008FF
:103E5000CC210008201F0008201F0008A421000812
:103E600009024300020100C03209040000010202FD
:103E700001000524001001052401000104240202B0
:103E80000524060001070582030800FF090401005C
:103E9000020A000000070501024000000705810238
:103EA000400000001201100102000040830440574E
:103EB0000002010203010000080337003000350052
:103EC0003803430068006900620069004F00530036
:103ED0002F00520054002000560069007200740048
:103EE000750061006C00200043004F004D00200071
:103EF00050006F00720074002603530054004D0000
:103F00006900630072006F0065006C00650063006B
:103F1000740072006F006E0069006300730000009F
:103F2000040309040000000000000000211B000839
:103F300091190008211A000891180008311A000888
:103F4000A1180008311B0008A1190008310400085D
:103F50006D61696E002C0538040248080C10141CB1
:103F60002024252600000000000024020100040097
:103F700000000000000C001028303400B43C0008A1
:103F8000000000000000000010080020F0080020E1
:103F90000000000001180008E116000801150008E3
:103FA000C115000811150008D115000811180008E6
:103FB000F1160008410400080024F4001400000079
:103FC00000000000010000000000000000000000F0
:103FD00000000000000000000000000000000000E1
:103FE00000000000000000000000000000000000D1
:103FF00000000000080000000000000000020000B7
:10400000F11B00086107000851040008210F000897
:10401000740E0020010102000300000000000000F7
:10402000910400080000000010000000F0080020CB
:10403000000000000100000000000000020000007D
:1040400000000000911000086111000840004000CD
:1040500010090020000900200200000000000000FC
:1040600043000000603E000812000000A43E00086B
:1040700004000000203F000826000000F83E000871
:1040800038000000C03E000808000000B83E0008EC
:1040900000000000E1090008D10D0008910E0008A1
:1040A00040004000280900202809002001000000ED
:1040B000200900200000024008000240010000002A
:1040C0000008024000000900000002401C000240FD
:1040D000060000000408024004010A00000002403B
:1040E00030000240060000000808024008020A00F2
:1040F0000000024044000240780000000C0802402A
:104100000C030B0000000240580002407800000041
:104110001008024010040B00000000000100000025
:1041200000000000B04100083811002038110020C4
:1041300038110020B041000800000000000000001D
:1041400000000000B0410008000000000000000076
:1041500000000000B0410008000000000000000066
:1041600000000000B0410008000000000000000056
:1041700000000000B0410008000000000000000046
:1041800000000000B0410008000000000000000036
:1041900000000000B0410008000000000000000026
:0441A000000000001B
:0C41A40001000000009600000000080070
:04000005080001915D
:00000001FF
